:10000000020DEB02000A53EFFE323202001A53EFE8
:10001000FD323202001253EFFB323202002253EF64
:10002000FE3232020F90120038120E7712004A8010
:10003000FE900208E585F022C2AF22020EDB53EFEC
:02004000FD328F
:0A0043000210EB53EFFB32D2AF22A4
:03005300020006A2
:03005B0002000E92
:0300630002001E7A
:0300830002001662
:03008B0002110D52
:03009300020F3D1C
:03009B0002003E22
:1000A300020046020467E86480F8E933E83360112C
:1000B3000460F0ED33EC337009E8FCE9FDEAFEEB94
:1000C300FF220460DED3EB9FEA9EE99DE8C2E78C42
:1000D300F0C2F795F0400CE8CCF8E9CDF9EACEFA96
:1000E300EBCFFB12043285D0F05804700320D5B354
:1000F300E80470075002B2D502047192D5EC046093
:10010300F7E4CCC0E0C398F8603B94186008400D56
:10011300D0E0FB020449E4FBFAC9FC8028E830E4A0
:1001230006E4C9FBE4CAFCE830E305E4C9CACBFC36
:10013300E854076010F8C3E913F9EA13FAEB13FB69
:10014300EC13FCD8F130F52FC3E49CFCEF9BFFEEDE
:100153009AFEED99FDD0E0FBEF4E4D4C701222DB81
:100163000302046EEC2CFCEF33FFEE33FEED33FDA4
:10017300ED30E7EB020449EF2BFFEE3AFEED39FDDC
:10018300D0E0FB50130BBB0003020471ED13FDEE33
:1001930013FEEF13FFEC13FC020449EC4D6011E86E
:1001A300497017ED33EC3304600DE4FCFFFEFD22D0
:1001B300E933E8330470F802046712043258046028
:1001C30009E4CC2481500628500902047128400315
:1001D30002046EC0E0EB4A7044B98006D0E0FB0233
:1001E300045DEF4E701CBD8008EBFFEAFEE9FD8065
:1001F300EBE98DF0A4FEE5F0020287E9CDF9EAFE12
:10020300EBFFEF89F0A4FCE5F0CE89F0A42EFFE428
:1002130035F0CD89F0A42DFEE435F08067EF4E7004
:1002230005BD80D780C3EF8BF0A4ACF0EE8BF0A4B8
:100233002CFCE435F0F8EF8AF0A42CE5F038FCE46C
:1002430033CB8DF0A42CFCE5F03BF8EE8AF0A42C24
:10025300FCE5F038F8E433CF89F0A42CFCE5F03862
:10026300CF3400CE89F0A42FFFE5F03EFEE433C97E
:100273008DF0A42EFEE5F039CD8AF0A42FFFE5F032
:100283003EFEE43DFD33D0E0FB50070BBB000F0205
:100293000471EC2CFCEF33FFEE33FEED33FD02046F
:1002A30049020471EC5D046005E85904700302041B
:1002B30067120432580460F6EC4860F2EC7004FDF7
:1002C300FEFF22C860DB2481C85009C39860025036
:1002D3000602046E9850CAF582E9294B4A7005ABB1
:1002E3008202045D75F0007C1A7880C3EF9BEE9A5E
:1002F300ED99400DC3EF9BFFEE9AFEED99FDE842A9
:10030300F0DC23ACF0D0E0FFD0E0FED0E0FDAB8228
:1003130020E7101BEB60BAEC2CFCEF33FFEE33FE4F
:10032300ED33FD020449E803F830E705C0F075F04A
:1003330000EF2FFFEE33FEED33FD40B830E7C28010
:10034300AA74F8CC6480CCC86480C8F58204604F7A
:10035300C3EB9FF5F0EA9E42F0E99D42F0E89C452D
:10036300F0603C501DE5825FFFE582D313CB5BCB8E
:10037300F42B5582FB50280ABA002409B90020083F
:10038300801DE5825BFBE582D313CF5FCFF4C313FC
:100393002F5582FF50090EBE00050DBD00010CC391
:1003A300EB9FF5F0EA9E42F0E99D42F0E89C45F0B0
:1003B3006007CC4820E701B3EC2275F020800E756E
:1003C300F010800575F0087D007E007F003392D524
:1003D30030D50312082CEC334010EF33FFEE33FE1D
:1003E300ED33FDEC33FCD5F0ED22E5F0247EA2D510
:1003F30013CC92E7CDCEFF22EDD2E7CD33EC33928F
:10040300D524814006E4FFFEFDFC22FCE4CFCECDE3
:10041300CC24E0501174FF80EDC3CC13CCCD13CDAD
:10042300CE13CECF13CF0470F030D5DE02082CE903
:10043300D2E7C933E833F892D5EDD2E7CD33EC33C5
:10044300FC5002B2D522EC30E7100FBF000C0EBEF9
:1004530000080DBD00040BEB6014A2D5EB13FCEDFB
:1004630092E7FD2274FFFCFDFEFF22E480F8A2D593
:1004730074FF13FC7D80E480EFE709F608DFFA8060
:1004830046E709F208DFFA803E88828C83E709F0A9
:10049300A3DFFA8032E309F608DFFA8078E309F292
:1004A30008DFFA807088828C83E309F0A3DFFA8087
:1004B3006489828A83E0A3F608DFFA805889828AF6
:1004C30083E0A3F208DFFA804C80D280FA80C680F2
:1004D300D4806980F28033801080A680EA809A807D
:1004E300A880DA80E280CA803389828A83ECFAE4C6
:1004F30093A3C8C582C8CCC583CCF0A3C8C582C8A2
:10050300CCC583CCDFE9DEE7800D89828A83E4935F
:10051300A3F608DFF9ECFAA9F0EDFB2289828A83BE
:10052300ECFAE0A3C8C582C8CCC583CCF0A3C8C588
:1005330082C8CCC583CCDFEADEE880DB89828A838C
:10054300E493A3F208DFF980CC88F0EF60010E4E4C
:1005530060C388F0ED2402B4040050B9F582EB24A3
:1005630002B4040050AF23234582239004CC73C20A
:10057300D530F707B2D563F0FF05F030E70CB2D5FD
:10058300F4048463F0FF05F080018430D502F404A1
:1005930022BB010689828A83E0225002E722BBFE46
:1005A30002E32289828A83E49322BB010CE5822938
:1005B300F582E5833AF583E0225006E92582F8E6E1
:1005C30022BBFE06E92582F8E222E58229F582E5CF
:1005D300833AF583E49322BB010689828A83F0225E
:1005E3005002F722BBFE01F322F8BB010DE582297D
:1005F300F582E5833AF583E8F0225006E92582C8BF
:10060300F622BBFE05E92582C8F222EF8DF0A4A8ED
:10061300F0CF8CF0A428CE8DF0A42EFE22BC000BCC
:10062300BE0029EF8DF084FFADF022E4CCF875F025
:1006330008EF2FFFEE33FEEC33FCEE9DEC98400504
:10064300FCEE9DFE0FD5F0E9E4CEFD22EDF8F5F0CA
:10065300EE8420D21CFEADF075F008EF2FFFED33D2
:10066300FD4007985006D5F0F222C398FD0FD5F050
:10067300EA22C2D5EC30E709B2D5E4C39DFDE49C80
:10068300FCEE30E715B2D5E4C39FFFE49EFE1206ED
:1006930020C3E49DFDE49CFC800312062030D507B3
:1006A300C3E49FFFE49EFE22C5F0F8A3E028F0C553
:1006B300F0F8E582158270021583E038F022A3F882
:1006C300E0C5F025F0F0E582158270021583E0C8DD
:1006D30038F0E822BB0110E58229F582E5833AF57B
:1006E30083E0F5F0A3E0225009E92582F886F008BB
:1006F300E622BBFE0AE92582F8E2F5F008E222E5EC
:10070300832AF583E993F5F0A3E99322E88FF0A414
:10071300CC8BF0A42CFCE98EF0A42CFC8AF0EDA485
:100723002CFCEA8EF0A4CDA8F08BF0A42DCC3825B8
:10073300F0FDE98FF0A42CCD35F0FCEB8EF0A4FE98
:10074300A9F0EB8FF0A4CFC5F02ECD39FEE43CFC2D
:10075300EAA42DCE35F0FDE43CFC2275F008758249
:1007630000EF2FFFEE33FECD33CDCC33CCC5823338
:10077300C5829BED9AEC99E58298400CF582EE9B3D
:10078300FEED9AFDEC99FC0FD5F0D6E4CEFBE4CD5B
:10079300FAE4CCF9A88222B800C1B90059BA002DF5
:1007A300EC8BF084CFCECDFCE5F0CBF97818EF2FAE
:1007B300FFEE33FEED33FDEC33FCEB33FB10D703DD
:1007C300994004EB99FB0FD8E5E4F9FA227818EF86
:1007D3002FFFEE33FEED33FDEC33FCC933C910D7E5
:1007E300059BE99A4007EC9BFCE99AF90FD8E0E4F2
:1007F300C9FAE4CCFB2275F010EF2FFFEE33FEEDC8
:1008030033FDCC33CCC833C810D7079BEC9AE89997
:10081300400AED9BFDEC9AFCE899F80FD5F0DAE479
:10082300CDFBE4CCFAE4C8F922C3E49FFFE49EFEC7
:10083300E49DFDE49CFC22EB9FF5F0EA9E42F0E987
:100843009D42F0EC6480C864809845F022EB9FF5EC
:10085300F0EA9E42F0E99D42F0E89C45F022E86010
:100863000FECC313FCED13FDEE13FEEF13FFD8F1F2
:1008730022BB010789828A830209345005E9F80201
:100883000928BBFE05E9F802094089828A83020927
:100893004CECF0A3EDF0A3EEF0A3EFF022A88285D9
:1008A30083F0D083D0821208B71208B71208B712A8
:1008B30008B7E473E493A3C583C5F0C583C8C582B1
:1008C300C8F0A3C583C5F0C583C8C582C822F5F0A7
:1008D300C582A4C582C5F0C583A42583F58322BB45
:1008E300010789828A830209655005E9F802095CD8
:1008F300BBFE05E9F802096E89828A83020977D073
:1009030083D082F8E4937012740193700DA3A393C0
:10091300F8740193F5828883E4737402936860EF3B
:10092300A3A3A380DFE6FC08E6FD08E6FE08E6FFD6
:1009330022E0FCA3E0FDA3E0FEA3E0FF22E2FC082B
:10094300E2FD08E2FE08E2FF22E493FC740193FD5A
:10095300740293FE740393FF22E6FB08E6FA08E6AB
:10096300F922E0FBA3E0FAA3E0F922E2FB08E2FAB2
:1009730008E2F922E493FB740193FA740293F922D7
:1009830043BA8078FBE6FBAF9FC3EF9BFFE4940081
:10099300FEE49400FDE49400FCE47BF07AD2F9F8E1
:1009A30012070FE42FFFEE3436FEED346EFDEC3408
:1009B30001FC900200120894900200E0FCA3E0FD09
:1009C300A3E0FEA3E0FFC00790FE01E0FBE4FAF919
:1009D300F8D00712079A9002001208947FC07EF69F
:1009E3007D577C00900200E0F8A3E0F9A3E0FAA3AE
:1009F300E0FBC312085050097F007E607D547C00E9
:100A0300227FC07E267D827C00900200E0F8A3E076
:100A1300F9A3E0FAA3E0FBC312085050097F807EDC
:100A23008D7D5B7C00227F807EED7DAF7C0090021C
:100A330000E0F8A3E0F9A3E0FAA3E0FBC312085037
:100A430050097F007EC07DA87C00227F807E2D7DA3
:100A5300E87C00900200E0F8A3E0F9A3E0FAA3E049
:100A6300FBC312085050097F007E1B7DB77C002218
:100A73007F807E367D257C01900200E0F8A3E0F9BB
:100A8300A3E0FAA3E0FBC312085050097F007E40A5
:100A93007D197C01227F807E567D417C019002007E
:100AA300E0F8A3E0F9A3E0FAA3E0FBC31208505077
:100AB300097F007E2D7D317C01227F007EDB7D5FFF
:100AC3007C01900200E0F8A3E0F9A3E0FAA3E0FBC5
:100AD300C312085050097F007E807D517C01227F24
:100AE300607E197D857C01900200E0F8A3E0F9A304
:100AF300E0FAA3E0FBC312085050097F007E367D65
:100B03006E7C01227F207EE07DB27C01900200E0BA
:100B1300F8A3E0F9A3E0FAA3E0FBC31208505009DD
:100B23007FC07EFC7D9B7C01227FE07EA67DE07CF6
:100B330001900200E0F8A3E0F9A3E0FAA3E0FBC30D
:100B430012085050097F807EC37DC97C01227F60DB
:100B53007E2B7DFF7C01900200E0F8A3E0F9A3E087
:100B6300FAA3E0FBC312085050097F007E407DFAD0
:100B73007C01227FC07E0E7D167C0222900200EF54
:100B8300F0A3EDF0A3EBF0A3E0F8A3E0F9A3E0FA00
:100B9300A3E0FB900210E0FCA3E0FDA3E0FEA3E0D2
:100BA300FF12079AE47B04FAF9F812079AC3E49F49
:100BB300FFE49EAD07FC900200E0147003020C58A2
:100BC300147003020C9B147003020CF424036003DF
:100BD300020D51900207E0FB7A0064017014439800
:100BE300508D8BECF58D438E40D28EE49001CAF08C
:100BF3008011EB64024A700B4398508DD7ECF5D605
:100C0300438E1553A23F900201E0F9FF7E00700866
:100C1300A3E0640170028035EF64024E700D900210
:100C230002E06403700543A2408022E96404700D6E
:100C3300900202E06405700543A2808010E9640617
:100C4300700B900202E06407700343A2C0E49001BA
:100C5300CAF0D2AC22900207E06402700B439A10F0
:100C63008DD7ECF5D6438E1453BAFE900201E0FF04
:100C73007E0064087008A3E0640970028011EF64C9
:100C83000A4E700B900202E0640B700343BA0143F7
:100C9300AF01E49001CBF022900207E0FB7A0064FD
:100CA30002700D439A108DD7ECF5D6438E14801144
:100CB300EB64034A700B43AC508DD5ECF5D443D1B0
:100CC3000A53BAFD900201E0FF7E00640C7008A392
:100CD300E0640D70028011EF640E4E700B900202FF
:100CE300E0640F700343BA0243AF08E49001CCF011
:100CF30022900207E0FB7A006402700D4384108D9A
:100D0300D7ECF5D6438E148011EB64044A700B4381
:100D130084508DD3ECF5D243D1A053BAFB9002019A
:100D2300E0FF7E0064107008A3E064117002801677
:100D3300EF64124E7010900202E064137008F5CA5B
:100D430075C90443BA0443AF10E49001CDF022AD5A
:100D530007EDFB7A0070209001D6E0FEA3E0F5EAF0
:100D6300EEF5FA9001CEE0FEA3E0FF9001D7E02F6D
:100D7300F09001D6E03EF0EB64014A70209001D878
:100D8300E0FEA3E0F5EBEEF5FB9001D0E0FEA3E07F
:100D9300FF9001D9E02FF09001D8E03EF0ED64021E
:100DA30070209001DAE0FEA3E0F5ECEEF5FC900193
:100DB300D2E0FEA3E0FF9001DBE02FF09001DAE048
:100DC3003EF0ED640370209001DCE0FEA3E0F5ED5E
:100DD300EEF5FD9001D4E0FEA3E0FF9001DDE02FEE
:100DE300F09001DCE03EF022787FE4F6D8FD7581D7
:100DF30007020E32020026E493A3F8E493A3400310
:100E0300F68001F208DFF48029E493A3F854072461
:100E13000CC8C333C4540F4420C8834004F4568021
:100E23000146F6DFE4800B010204081020408090A5
:100E330010C4E47E019360BCA3FF543F30E5095422
:100E43001FFEE493A360010ECF54C025E060A840C9
:100E5300B8E493A3FAE493A3F8E493A3C8C582C8C0
:100E6300CAC583CAF0A3C8C582C8CAC583CADFE995
:100E7300DEE780BE120983900210120894E4F59411
:100E8300F593F592F591F596F595F5B2F5B1F5B4BF
:100E9300F5B3F5CAF5C9F5CCF5CBF5E2F5E1F5D82F
:100EA300F5D9F5DEF58EF598F59AF5ACF584F5A24E
:100EB300F5BAF5AFF589F5E9F5F943BA8012109B58
:100EC3009002031208A00001C2009002077402F00E
:100ED3007B01E4FDFF020B7FC0E0C0F0C083C08252
:100EE300C0D075D000C000C001C002C003C004C0A0
:100EF30005C006C00730D80B53D8FEE4FF120D52CD
:100F0300120FDF30D90853D8FD7F01120D5230DAAA
:100F13000853D8FB7F02120D5230DB0353D8F7D0AE
:100F230007D006D005D004D003D002D001D000D022
:100F3300D0D082D083D0F0D0E032C0E0C0F0C08304
:100F4300C082C0D075D000C000C001C002C003C0C1
:100F530004C005C006C007E58430E1085384FD9052
:100F630001CDE4F0E58430E0095384FE1200311230
:100F73000031D007D006D005D004D003D002D00171
:100F8300D000D0D0D082D083D0F0D0E032C0E0C047
:100F930083C082C0D075D000C007E59830E1085304
:100FA30098FD9001CAE4F0E59830E0255398FEAF30
:100FB30099EF647F7016900217E0FF04F0D3EF946B
:100FC3001474809480400A75C7608005900217E40A
:100FD300F0D007D0D0D082D083D0E032E4900209A1
:100FE300F0D2C8C2C9C2C8D2C9D2C8C2C9F090021D
:100FF30009E0C39480748094805027C2C8E4FD7FC5
:1010030003121070900209E025E02401F582E43414
:1010130000F583EEF0A3EFF0D2C8900209E004F0EC
:1010230080CC9000007401F022C2D5E830E70FB203
:10103300D5E4C39BFBE49AFAE499F9E498F8EC301D
:10104300E717B2D512106212079AE4C39BFBE49A26
:10105300FAE499F9E498F8800312079A30D50DE47D
:10106300C39FFFE49EFEE49DFDE49CFC22A905537F
:10107300BCF0EF42BC43BC40E5BC30E5FB53BCDFF6
:10108300AFBDEFFEADBEEDFFAD01A805088005CEF7
:10109300C313CE13D8F9FF22E47BE07A2EF9F8903C
:1010A3000210E0FCA3E0FDA3E0FEA3E0FF12079A19
:1010B300900214EEF0A3EFF075DD48E4F5D9D2DE2B
:1010C30022440210000000004801D6000000000086
:1010D3000000004801CE00000000000000004202B2
:1010E3001400004102160000C0E0C083C082E59AEC
:1010F30030E108539AFD9001CBE4F0E59A30E00328
:10110300539AFED082D083D0E032C0E0C083C08245
:10111300E5AC30E10853ACFD9001CCE4F0E5AC3034
:0C112300E00353ACFED082D083D0E03259
:00000001FF
