:1000000002119D02000CC2AF22D2AF223232323234
:0100100032BD
:0300130002000DDB
:10002300021354AB07AA06EB1BAE0270011A4E6013
:070033000512151180F122F6
:03003B0002122985
:0300430002005E5A
:0300530002000E9A
:10005B0002000FC0E0C083C082E59A30E108539ADA
:10006B00FD9001CBE4F0E59A30E003539AFED08289
:05007B00D083D0E0324B
:0300830002001068
:03008B000214CD8F
:100093000214EF020457E86480F8E933E83360118F
:1000A3000460F0ED33EC337009E8FCE9FDEAFEEBA4
:1000B300FF220460DED3EB9FEA9EE99DE8C2E78C52
:1000C300F0C2F795F0400CE8CCF8E9CDF9EACEFAA6
:1000D300EBCFFB12042285D0F05804700320D5B374
:1000E300E80470075002B2D502046192D5EC0460B3
:1000F300F7E4CCC0E0C398F8603B94186008400D67
:10010300D0E0FB020439E4FBFAC9FC8028E830E4C0
:1001130006E4C9FBE4CAFCE830E305E4C9CACBFC46
:10012300E854076010F8C3E913F9EA13FAEB13FB79
:10013300EC13FCD8F130F52FC3E49CFCEF9BFFEEEE
:100143009AFEED99FDD0E0FBEF4E4D4C701222DB91
:100153000302045EEC2CFCEF33FFEE33FEED33FDC4
:10016300ED30E7EB020439EF2BFFEE3AFEED39FDFC
:10017300D0E0FB50130BBB0003020461ED13FDEE53
:1001830013FEEF13FFEC13FC020439EC4D6011E88E
:10019300497017ED33EC3304600DE4FCFFFEFD22E0
:1001A300E933E8330470F802045712042258046058
:1001B30009E4CC2481500628500902046128400335
:1001C30002045EC0E0EB4A7044B98006D0E0FB0253
:1001D300044DEF4E701CBD8008EBFFEAFEE9FD8085
:1001E300EBE98DF0A4FEE5F0020277E9CDF9EAFE32
:1001F300EBFFEF89F0A4FCE5F0CE89F0A42EFFE439
:1002030035F0CD89F0A42DFEE435F08067EF4E7014
:1002130005BD80D780C3EF8BF0A4ACF0EE8BF0A4C8
:100223002CFCE435F0F8EF8AF0A42CE5F038FCE47C
:1002330033CB8DF0A42CFCE5F03BF8EE8AF0A42C34
:10024300FCE5F038F8E433CF89F0A42CFCE5F03872
:10025300CF3400CE89F0A42FFFE5F03EFEE433C98E
:100263008DF0A42EFEE5F039CD8AF0A42FFFE5F042
:100273003EFEE43DFD33D0E0FB50070BBB000F0215
:100283000461EC2CFCEF33FFEE33FEED33FD02048F
:1002930039020461EC5D046005E85904700302044B
:1002A30057120422580460F6EC4860F2EC7004FD27
:1002B300FEFF22C860DB2481C85009C39860025046
:1002C3000602045E9850CAF582E9294B4A7005ABD1
:1002D3008202044D75F0007C1A7880C3EF9BEE9A7E
:1002E300ED99400DC3EF9BFFEE9AFEED99FDE842B9
:1002F300F0DC23ACF0D0E0FFD0E0FED0E0FDAB8239
:1003030020E7101BEB60BAEC2CFCEF33FFEE33FE5F
:10031300ED33FD020439E803F830E705C0F075F06A
:1003230000EF2FFFEE33FEED33FD40B830E7C28020
:10033300AA74F8CC6480CCC86480C8F58204604F8A
:10034300C3EB9FF5F0EA9E42F0E99D42F0E89C453D
:10035300F0603C501DE5825FFFE582D313CB5BCB9E
:10036300F42B5582FB50280ABA002409B90020084F
:10037300801DE5825BFBE582D313CF5FCFF4C3130C
:100383002F5582FF50090EBE00050DBD00010CC3A1
:10039300EB9FF5F0EA9E42F0E99D42F0E89C45F0C0
:1003A3006007CC4820E701B3EC2275F020800E757E
:1003B300F010800575F0087D007E007F003392D534
:1003C30030D50312081CEC334010EF33FFEE33FE3D
:1003D300ED33FDEC33FCD5F0ED22E5F0247EA2D520
:1003E30013CC92E7CDCEFF22EDD2E7CD33EC33929F
:1003F300D524814006E4FFFEFDFC22FCE4CFCECDF4
:10040300CC24E0501174FF80EDC3CC13CCCD13CDBD
:10041300CE13CECF13CF0470F030D5DE02081CE923
:10042300D2E7C933E833F892D5EDD2E7CD33EC33D5
:10043300FC5002B2D522EC30E7100FBF000C0EBE09
:1004430000080DBD00040BEB6014A2D5EB13FCED0B
:1004530092E7FD2274FFFCFDFEFF22E480F8A2D5A3
:1004630074FF13FC7D80E480EFE709F608DFFA8070
:1004730046E709F208DFFA803E88828C83E709F0B9
:10048300A3DFFA8032E309F608DFFA8078E309F2A2
:1004930008DFFA807088828C83E309F0A3DFFA8097
:1004A3006489828A83E0A3F608DFFA805889828A06
:1004B30083E0A3F208DFFA804C80D280FA80C68002
:1004C300D4806980F28033801080A680EA809A808D
:1004D300A880DA80E280CA803389828A83ECFAE4D6
:1004E30093A3C8C582C8CCC583CCF0A3C8C582C8B2
:1004F300CCC583CCDFE9DEE7800D89828A83E49370
:10050300A3F608DFF9ECFAA9F0EDFB2289828A83CE
:10051300ECFAE0A3C8C582C8CCC583CCF0A3C8C598
:1005230082C8CCC583CCDFEADEE880DB89828A839C
:10053300E493A3F208DFF980CC88F0EF60010E4E5C
:1005430060C388F0ED2402B4040050B9F582EB24B3
:1005530002B4040050AF23234582239004BC73C22A
:10056300D530F707B2D563F0FF05F030E70CB2D50D
:10057300F4048463F0FF05F080018430D502F404B1
:1005830022BB010689828A83E0225002E722BBFE56
:1005930002E32289828A83E49322BB010CE5822948
:1005A300F582E5833AF583E0225006E92582F8E6F1
:1005B30022BBFE06E92582F8E222E58229F582E5DF
:1005C300833AF583E49322BB010689828A83F0226E
:1005D3005002F722BBFE01F322F8BB010DE582298D
:1005E300F582E5833AF583E8F0225006E92582C8CF
:1005F300F622BBFE05E92582C8F222EF8DF0A4A8FE
:10060300F0CF8CF0A428CE8DF0A42EFE22BC000BDC
:10061300BE0029EF8DF084FFADF022E4CCF875F035
:1006230008EF2FFFEE33FEEC33FCEE9DEC98400514
:10063300FCEE9DFE0FD5F0E9E4CEFD22EDF8F5F0DA
:10064300EE8420D21CFEADF075F008EF2FFFED33E2
:10065300FD4007985006D5F0F222C398FD0FD5F060
:10066300EA22C2D5EC30E709B2D5E4C39DFDE49C90
:10067300FCEE30E715B2D5E4C39FFFE49EFE1206FD
:1006830010C3E49DFDE49CFC800312061030D507E3
:10069300C3E49FFFE49EFE22C5F0F8A3E028F0C563
:1006A300F0F8E582158270021583E038F022A3F892
:1006B300E0C5F025F0F0E582158270021583E0C8ED
:1006C30038F0E822BB0110E58229F582E5833AF58B
:1006D30083E0F5F0A3E0225009E92582F886F008CB
:1006E300E622BBFE0AE92582F8E2F5F008E222E5FC
:1006F300832AF583E993F5F0A3E99322E88FF0A425
:10070300CC8BF0A42CFCE98EF0A42CFC8AF0EDA495
:100713002CFCEA8EF0A4CDA8F08BF0A42DCC3825C8
:10072300F0FDE98FF0A42CCD35F0FCEB8EF0A4FEA8
:10073300A9F0EB8FF0A4CFC5F02ECD39FEE43CFC3D
:10074300EAA42DCE35F0FDE43CFC2275F008758259
:1007530000EF2FFFEE33FECD33CDCC33CCC5823348
:10076300C5829BED9AEC99E58298400CF582EE9B4D
:10077300FEED9AFDEC99FC0FD5F0D6E4CEFBE4CD6B
:10078300FAE4CCF9A88222B800C1B90059BA002D05
:10079300EC8BF084CFCECDFCE5F0CBF97818EF2FBE
:1007A300FFEE33FEED33FDEC33FCEB33FB10D703ED
:1007B300994004EB99FB0FD8E5E4F9FA227818EF96
:1007C3002FFFEE33FEED33FDEC33FCC933C910D7F5
:1007D300059BE99A4007EC9BFCE99AF90FD8E0E402
:1007E300C9FAE4CCFB2275F010EF2FFFEE33FEEDD8
:1007F30033FDCC33CCC833C810D7079BEC9AE899A8
:10080300400AED9BFDEC9AFCE899F80FD5F0DAE489
:10081300CDFBE4CCFAE4C8F922C3E49FFFE49EFED7
:10082300E49DFDE49CFC22EB9FF5F0EA9E42F0E997
:100833009D42F0EC6480C864809845F022EB9FF5FC
:10084300F0EA9E42F0E99D42F0E89C45F022E86020
:100853000FECC313FCED13FDEE13FEEF13FFD8F102
:1008630022BB010789828A830209245005E9F80221
:100873000918BBFE05E9F802093089828A83020957
:100883003CECF0A3EDF0A3EEF0A3EFF022A88285F9
:1008930083F0D083D0821208A71208A71208A712E8
:1008A30008A7E473E493A3C583C5F0C583C8C582D1
:1008B300C8F0A3C583C5F0C583C8C582C822F5F0B7
:1008C300C582A4C582C5F0C583A42583F58322BB55
:1008D300010789828A830209555005E9F802094C08
:1008E300BBFE05E9F802095E89828A83020967D0A3
:1008F30083D082F8E4937012740193700DA3A393D1
:10090300F8740193F5828883E4737402936860EF4B
:10091300A3A3A380DFE6FC08E6FD08E6FE08E6FFE6
:1009230022E0FCA3E0FDA3E0FEA3E0FF22E2FC083B
:10093300E2FD08E2FE08E2FF22E493FC740193FD6A
:10094300740293FE740393FF22E6FB08E6FA08E6BB
:10095300F922E0FBA3E0FAA3E0F922E2FB08E2FAC2
:1009630008E2F922E493FB740193FA740293F922E7
:10097300EF54F0F9FB7A007062ED14601F146030DD
:1009830014604424037054EF540FFEF8740108807C
:1009930002C333D8FCF452935294803FEF540FFEBA
:1009A300F87401088002C333D8FCFEF45293802804
:1009B300EF540FFEF87401088002C333D8FCFE42E3
:1009C30093EEF452948014EF540FFEF874010880F0
:1009D30002C333D8FCFE4293EE4294EB64104A7098
:1009E30062ED14601F14603014604424037054EFEC
:1009F300540FFEF87401088002C333D8FCF45291FB
:100A03005292803FEF540FFEF87401088002C33303
:100A1300D8FCFEF452918028EF540FFEF8740108BD
:100A23008002C333D8FCFE4291EEF452928014EF5D
:100A3300540FFEF87401088002C333D8FCFE4291C0
:100A4300EE4292E964207062ED14601F146030146A
:100A5300604424037054EF540FFEF87401088002BD
:100A6300C333D8FCF452955296803FEF540FFEF8EF
:100A73007401088002C333D8FCFEF452958028EF3A
:100A8300540FFEF87401088002C333D8FCFE42956C
:100A9300EEF452968014EF540FFEF87401088002AE
:100AA300C333D8FCFE4295EE4296E9FB7A006430EC
:100AB3007062ED14601F146030146044240370549A
:100AC300EF540FFEF87401088002C333D8FCF452CC
:100AD300B152B2803FEF540FFEF87401088002C395
:100AE30033D8FCFEF452B18028EF540FFEF87401A2
:100AF300088002C333D8FCFE42B1EEF452B2801434
:100B0300EF540FFEF87401088002C333D8FCFE4291
:100B1300B1EE42B2EB64404A7062ED14601F1460A0
:100B23003014604424037054EF540FFEF87401082A
:100B33008002C333D8FCF452B352B4803FEF540F56
:100B4300FEF87401088002C333D8FCFEF452B3806C
:100B530028EF540FFEF87401088002C333D8FCFE5B
:100B630042B3EEF452B48014EF540FFEF87401084C
:100B73008002C333D8FCFE42B3EE42B4E964507042
:100B830062ED14601F14603014604424037054EF4A
:100B9300540FFEF87401088002C333D8FCF452C921
:100BA30052CA803FEF540FFEF87401088002C3332A
:100BB300D8FCFEF452C98028EF540FFEF8740108E4
:100BC3008002C333D8FCFE42C9EEF452CA8014EF4C
:100BD300540FFEF87401088002C333D8FCFE42C9E7
:100BE300EE42CAE9FB7A0064607062ED14601F1480
:100BF300603014604424037054EF540FFEF8740102
:100C0300088002C333D8FCF452CB52CC803FEF545C
:100C13000FFEF87401088002C333D8FCFEF452CBF4
:100C23008028EF540FFEF87401088002C333D8FC08
:100C3300FE42CBEEF452CC8014EF540FFEF8740155
:100C4300088002C333D8FCFE42CBEE42CCEB647087
:100C53004A7060ED14601E14602F14604224037008
:100C630052EF540FFEF87401088002C333D8FCF42A
:100C730052E152E222EF540FFEF87401088002C3DE
:100C830033D8FCFEF452E18027EF540FFEF87401D1
:100C9300088002C333D8FCFE42E1EEF452E222EFB5
:100CA300540FFEF87401088002C333D8FCFE42E1FE
:100CB300EE42E22243BA8078FBE6FBAF9FC3EF9B91
:100CC300FFE49400FEE49400FDE49400FCE47BF074
:100CD3007AD2F9F81206FFE42FFFEE3436FEED3434
:100CE3006EFDEC3401FC9001F61208849001F6E0ED
:100CF300FCA3E0FDA3E0FEA3E0FFC00790FE01E03C
:100D0300FBE4FAF9F8D00712078A9001F612088477
:100D13007FC07EF67D577C009001F6E0F8A3E0F9F2
:100D2300A3E0FAA3E0FBC312084050097F007E60F2
:100D33007D547C00227FC07E267D827C009001F65C
:100D4300E0F8A3E0F9A3E0FAA3E0FBC312084050E4
:100D5300097F807E8D7D5B7C00227F807EED7DAF71
:100D63007C009001F6E0F8A3E0F9A3E0FAA3E0FB2E
:100D7300C312084050097F007EC07DA87C00227FFB
:100D8300807E2D7DE87C009001F6E0F8A3E0F9A3D6
:100D9300E0FAA3E0FBC312084050097F007E1B7DED
:100DA300B77C00227F807E367D257C019001F6E0B2
:100DB300F8A3E0F9A3E0FAA3E0FBC312084050094B
:100DC3007F007E407D197C01227F807E567D417CA1
:100DD300019001F6E0F8A3E0F9A3E0FAA3E0FBC376
:100DE30012084050097F007E2D7D317C01227F0057
:100DF3007EDB7D5F7C019001F6E0F8A3E0F9A3E0E0
:100E0300FAA3E0FBC312084050097F007E807D51A6
:100E13007C01227F607E197D857C019001F6E0F8DC
:100E2300A3E0F9A3E0FAA3E0FBC312084050097F53
:100E3300007E367D6E7C01227F207EE07DB27C01C8
:100E43009001F6E0F8A3E0F9A3E0FAA3E0FBC312F4
:100E5300084050097FC07EFC7D9B7C01227FE07EA1
:100E6300A67DE07C019001F6E0F8A3E0F9A3E0FAA7
:100E7300A3E0FBC312084050097F807EC37DC97C79
:100E830001227F607E2B7DFF7C019001F6E0F8A3B9
:100E9300E0F9A3E0FAA3E0FBC312084050097F0086
:100EA3007E407DFA7C01227FC07E0E7D167C02226D
:100EB3009001F6EFF0A3EDF0A3EBF0A3E0F8A3E0CD
:100EC300F9A3E0FAA3E0FB900211E0FCA3E0FDA389
:100ED300E0FEA3E0FF12078AE47B04FAF9F81207A5
:100EE3008AC3E49FFFE49EAD07FC9001F6E0147013
:100EF30003020F8C147003020FCF14700302102827
:100F0300240360030210859001FDE0FB7A00640175
:100F130070144398508D8BECF58D438E40D28EE444
:100F23009001CAF08011EB64024A700B4398508D14
:100F3300D7ECF5D6438E1553A23F9001F7E0F9FFA6
:100F43007E007008A3E0640170028035EF64024EF6
:100F5300700D9001F8E06403700543A2408022E91C
:100F63006404700D9001F8E06405700543A280806D
:100F730010E96406700B9001F8E06407700343A264
:100F8300C0E49001CAF0D2AC229001FDE06402708B
:100F93000B439A108DD7ECF5D6438E1453BAFE90BB
:100FA30001F7E0FF7E0064087008A3E064097002A3
:100FB3008011EF640A4E700B9001F8E0640B70032C
:100FC30043BA0143AF01E49001CBF0229001FDE06D
:100FD300FB7A006402700D439A108DD7ECF5D6436B
:100FE3008E148011EB64034A700B43AC508DD5EC27
:100FF300F5D443D10A53BAFD9001F7E0FF7E0064B4
:101003000C7008A3E0640D70028011EF640E4E7043
:101013000B9001F8E0640F700343BA0243AF08E496
:101023009001CCF0229001FDE0FB7A006402700D88
:101033004384108DD7ECF5D6438E148011EB6404F2
:101043004A700B4384508DD3ECF5D243D1A053BAED
:10105300FB9001F7E0FF7E0064107008A3E06411C9
:1010630070028016EF64124E70109001F8E0641362
:101073007008F5CA75C90443BA0443AF10E490017C
:10108300CDF0229001F6EFF0E49001FFF012143B53
:101093009001F6E0FF54F02404FDE434FF8D82F563
:1010A30083E054E7F0E0FEEF540333333354F8FFA7
:1010B300EE4FF09001F7E0F8A3E0F9A3E0FAA3E024
:1010C300FB900211E0FCA3E0FDA3E0FEA3E0FF120E
:1010D300078A780F1208519001FFEFF09001F7E0B3
:1010E300F8A3E0F9A3E0FAA3E0FB900211E0FCA36C
:1010F300E0FDA3E0FEA3E0FF12078AC006C007904D
:1011030001FFE02401FFE433AB07FA3395E0F9F87C
:10111300D007D00612078A9001FDEEF0A3EFF090FE
:1011230001FBE0FCA3E0FDE41203B27B007A40790B
:101133001C7846120297C004C005C006C007900180
:10114300FDE0FCA3E0FDE41203B2D003D002D00122
:10115300D00012018E1203EB9001FFE090FFF2F03A
:101163009001FDE0FDA3E090FFF0CDF0A3EDF09042
:1011730001F6E054F0FD7C002400FBEC34FF8B828D
:10118300F583EEF0A3EFF0ED2404FFEC34FF8F8240
:10119300F583E04480F075FE8022787FE4F6D8FD85
:1011A3007581070211E40212F3E493A3F8E493A315
:1011B3004003F68001F208DFF48029E493A3F85496
:1011C30007240CC8C333C4540F4420C8834004F419
:1011D30056800146F6DFE4800B010204081020402C
:1011E30080901478E47E019360BCA3FF543F30E504
:1011F30009541FFEE493A360010ECF54C025E060A1
:10120300A840B8E493A3FAE493A3F8E493A3C8C56E
:1012130082C8CAC583CAF0A3C8C582C8CAC583CA5F
:10122300DFE9DEE780BEC0E0C083C082C0D075D0F6
:1012330000C006C00730D822C2D89001D6E0FEA372
:10124300E0F5EAEEF5FA9001CEE0FEA3E0FF9001AF
:10125300D7E02FF09001D6E03EF030D922C2D990EA
:1012630001D8E0FEA3E0F5EBEEF5FB9001D0E0FE44
:10127300A3E0FF9001D9E02FF09001D8E03EF0D039
:1012830007D006D0D0D082D083D0E032120CB790F2
:101293000211120884E4F594F593F592F591F5960D
:1012A300F595F5B2F5B1F5B4F5B3F5CAF5C9F5CCD5
:1012B300F5CBF5E2F5E1F5D8F5D9F5DEF58EF59840
:1012C300F59AF5ACF584F5A2F5BAF5AFF589F5E92C
:1012D300F5F943BA801214A49001F91208900001A1
:1012E300C2009001FD7402F07B01E4FDFF020EB326
:1012F30012000612128F9001F712089000002710B7
:10130300900217E0FFA3E09001FBCFF0A3EFF07F83
:1013130050121086120009900217E0FCA3E0FD7F33
:10132300501213A7D3900218E09400900217E09490
:101333000050077427F0A37410F0900218E024CE35
:10134300F0900217E034FFF07F0A7E00120026803F
:10135300C6C0E0C083C082C0D075D000C005C0073E
:10136300309907C2999001CAE4F030982AC298AF25
:1013730099EFFD647F6005ED6480701690021AE0BA
:10138300FF04F0D3EF941474809480400A75C7600F
:10139300800590021AE4F0D007D005D0D0D082D0D7
:1013A30083D0E0329001F6EFF0AE04AF05E4120310
:1013B300B27B007A40791C7846120297C004C005BC
:1013C300C006C00790FFF0E0FCA3E0FDE41203B207
:1013D300D003D002D001D00012018E1203EB900192
:1013E300F6E054F02400FDE434FF8D82F583EEF043
:1013F300A3EFF022C2D5E830E70FB2D5E4C39BFBDD
:10140300E49AFAE499F9E498F8EC30E717B2D512C4
:10141300142D12078AE4C39BFBE49AFAE499F9E4D6
:1014230098F8800312078A30D50DE4C39FFFE49E2A
:10143300FEE49DFDE49CFC22EF5403FD7C00700858
:101443009002007420F0801AED64014C7008900241
:10145300007410F0800CED64024C7006900200746E
:1014630060F0900200E0FEEFC4540FFFEE4FFFF078
:101473007D01020973440211000000004801D600F7
:10148300000000000000004801CE00000000000042
:101493000000420215000041021900420217271002
:1014A30000E47BE07A2EF9F8900211E0FCA3E0FD62
:1014B300A3E0FEA3E0FF12078A900215EEF0A3EF6C
:1014C300F075DD48E4F5D9D2DE22C0E0C083C082E6
:1014D300E5AC30E10853ACFD9001CCE4F0E5AC3071
:1014E300E00353ACFED082D083D0E032C0E0C083AF
:1014F300C082E58430E1085384FD9001CDE4F0E53A
:101503008430E0035384FED082D083D0E032AFF93D
:10151300EFFEADE9EDFF900216E02FFF900215E01C
:0B1523003E8FEDF5FD30DBFDC2DB224A
:00000001FF
