:10000000020E7802000CC2AF22D2AF22323232325C
:0100100032BD
:0C00130002000D536D61727443617200B5
:10002300021050AB07AA06EB1BAE0270011A4E601A
:070033000512126180F122A9
:03003B00020F862B
:0300430002005E5A
:0300530002000E9A
:10005B0002000FC0E0C083C082E59A30E108539ADA
:10006B00FD9001CBE4F0E59A30E003539AFED08289
:05007B00D083D0E0324B
:0300830002001068
:03008B0002121D41
:1000930002123F020457E86480F8E933E833601141
:1000A3000460F0ED33EC337009E8FCE9FDEAFEEBA4
:1000B300FF220460DED3EB9FEA9EE99DE8C2E78C52
:1000C300F0C2F795F0400CE8CCF8E9CDF9EACEFAA6
:1000D300EBCFFB12042285D0F05804700320D5B374
:1000E300E80470075002B2D502046192D5EC0460B3
:1000F300F7E4CCC0E0C398F8603B94186008400D67
:10010300D0E0FB020439E4FBFAC9FC8028E830E4C0
:1001130006E4C9FBE4CAFCE830E305E4C9CACBFC46
:10012300E854076010F8C3E913F9EA13FAEB13FB79
:10013300EC13FCD8F130F52FC3E49CFCEF9BFFEEEE
:100143009AFEED99FDD0E0FBEF4E4D4C701222DB91
:100153000302045EEC2CFCEF33FFEE33FEED33FDC4
:10016300ED30E7EB020439EF2BFFEE3AFEED39FDFC
:10017300D0E0FB50130BBB0003020461ED13FDEE53
:1001830013FEEF13FFEC13FC020439EC4D6011E88E
:10019300497017ED33EC3304600DE4FCFFFEFD22E0
:1001A300E933E8330470F802045712042258046058
:1001B30009E4CC2481500628500902046128400335
:1001C30002045EC0E0EB4A7044B98006D0E0FB0253
:1001D300044DEF4E701CBD8008EBFFEAFEE9FD8085
:1001E300EBE98DF0A4FEE5F0020277E9CDF9EAFE32
:1001F300EBFFEF89F0A4FCE5F0CE89F0A42EFFE439
:1002030035F0CD89F0A42DFEE435F08067EF4E7014
:1002130005BD80D780C3EF8BF0A4ACF0EE8BF0A4C8
:100223002CFCE435F0F8EF8AF0A42CE5F038FCE47C
:1002330033CB8DF0A42CFCE5F03BF8EE8AF0A42C34
:10024300FCE5F038F8E433CF89F0A42CFCE5F03872
:10025300CF3400CE89F0A42FFFE5F03EFEE433C98E
:100263008DF0A42EFEE5F039CD8AF0A42FFFE5F042
:100273003EFEE43DFD33D0E0FB50070BBB000F0215
:100283000461EC2CFCEF33FFEE33FEED33FD02048F
:1002930039020461EC5D046005E85904700302044B
:1002A30057120422580460F6EC4860F2EC7004FD27
:1002B300FEFF22C860DB2481C85009C39860025046
:1002C3000602045E9850CAF582E9294B4A7005ABD1
:1002D3008202044D75F0007C1A7880C3EF9BEE9A7E
:1002E300ED99400DC3EF9BFFEE9AFEED99FDE842B9
:1002F300F0DC23ACF0D0E0FFD0E0FED0E0FDAB8239
:1003030020E7101BEB60BAEC2CFCEF33FFEE33FE5F
:10031300ED33FD020439E803F830E705C0F075F06A
:1003230000EF2FFFEE33FEED33FD40B830E7C28020
:10033300AA74F8CC6480CCC86480C8F58204604F8A
:10034300C3EB9FF5F0EA9E42F0E99D42F0E89C453D
:10035300F0603C501DE5825FFFE582D313CB5BCB9E
:10036300F42B5582FB50280ABA002409B90020084F
:10037300801DE5825BFBE582D313CF5FCFF4C3130C
:100383002F5582FF50090EBE00050DBD00010CC3A1
:10039300EB9FF5F0EA9E42F0E99D42F0E89C45F0C0
:1003A3006007CC4820E701B3EC2275F020800E757E
:1003B300F010800575F0087D007E007F003392D534
:1003C30030D50312081CEC334010EF33FFEE33FE3D
:1003D300ED33FDEC33FCD5F0ED22E5F0247EA2D520
:1003E30013CC92E7CDCEFF22EDD2E7CD33EC33929F
:1003F300D524814006E4FFFEFDFC22FCE4CFCECDF4
:10040300CC24E0501174FF80EDC3CC13CCCD13CDBD
:10041300CE13CECF13CF0470F030D5DE02081CE923
:10042300D2E7C933E833F892D5EDD2E7CD33EC33D5
:10043300FC5002B2D522EC30E7100FBF000C0EBE09
:1004430000080DBD00040BEB6014A2D5EB13FCED0B
:1004530092E7FD2274FFFCFDFEFF22E480F8A2D5A3
:1004630074FF13FC7D80E480EFE709F608DFFA8070
:1004730046E709F208DFFA803E88828C83E709F0B9
:10048300A3DFFA8032E309F608DFFA8078E309F2A2
:1004930008DFFA807088828C83E309F0A3DFFA8097
:1004A3006489828A83E0A3F608DFFA805889828A06
:1004B30083E0A3F208DFFA804C80D280FA80C68002
:1004C300D4806980F28033801080A680EA809A808D
:1004D300A880DA80E280CA803389828A83ECFAE4D6
:1004E30093A3C8C582C8CCC583CCF0A3C8C582C8B2
:1004F300CCC583CCDFE9DEE7800D89828A83E49370
:10050300A3F608DFF9ECFAA9F0EDFB2289828A83CE
:10051300ECFAE0A3C8C582C8CCC583CCF0A3C8C598
:1005230082C8CCC583CCDFEADEE880DB89828A839C
:10053300E493A3F208DFF980CC88F0EF60010E4E5C
:1005430060C388F0ED2402B4040050B9F582EB24B3
:1005530002B4040050AF23234582239004BC73C22A
:10056300D530F707B2D563F0FF05F030E70CB2D50D
:10057300F4048463F0FF05F080018430D502F404B1
:1005830022BB010689828A83E0225002E722BBFE56
:1005930002E32289828A83E49322BB010CE5822948
:1005A300F582E5833AF583E0225006E92582F8E6F1
:1005B30022BBFE06E92582F8E222E58229F582E5DF
:1005C300833AF583E49322BB010689828A83F0226E
:1005D3005002F722BBFE01F322F8BB010DE582298D
:1005E300F582E5833AF583E8F0225006E92582C8CF
:1005F300F622BBFE05E92582C8F222EF8DF0A4A8FE
:10060300F0CF8CF0A428CE8DF0A42EFE22BC000BDC
:10061300BE0029EF8DF084FFADF022E4CCF875F035
:1006230008EF2FFFEE33FEEC33FCEE9DEC98400514
:10063300FCEE9DFE0FD5F0E9E4CEFD22EDF8F5F0DA
:10064300EE8420D21CFEADF075F008EF2FFFED33E2
:10065300FD4007985006D5F0F222C398FD0FD5F060
:10066300EA22C2D5EC30E709B2D5E4C39DFDE49C90
:10067300FCEE30E715B2D5E4C39FFFE49EFE1206FD
:1006830010C3E49DFDE49CFC800312061030D507E3
:10069300C3E49FFFE49EFE22C5F0F8A3E028F0C563
:1006A300F0F8E582158270021583E038F022A3F892
:1006B300E0C5F025F0F0E582158270021583E0C8ED
:1006C30038F0E822BB0110E58229F582E5833AF58B
:1006D30083E0F5F0A3E0225009E92582F886F008CB
:1006E300E622BBFE0AE92582F8E2F5F008E222E5FC
:1006F300832AF583E993F5F0A3E99322E88FF0A425
:10070300CC8BF0A42CFCE98EF0A42CFC8AF0EDA495
:100713002CFCEA8EF0A4CDA8F08BF0A42DCC3825C8
:10072300F0FDE98FF0A42CCD35F0FCEB8EF0A4FEA8
:10073300A9F0EB8FF0A4CFC5F02ECD39FEE43CFC3D
:10074300EAA42DCE35F0FDE43CFC2275F008758259
:1007530000EF2FFFEE33FECD33CDCC33CCC5823348
:10076300C5829BED9AEC99E58298400CF582EE9B4D
:10077300FEED9AFDEC99FC0FD5F0D6E4CEFBE4CD6B
:10078300FAE4CCF9A88222B800C1B90059BA002D05
:10079300EC8BF084CFCECDFCE5F0CBF97818EF2FBE
:1007A300FFEE33FEED33FDEC33FCEB33FB10D703ED
:1007B300994004EB99FB0FD8E5E4F9FA227818EF96
:1007C3002FFFEE33FEED33FDEC33FCC933C910D7F5
:1007D300059BE99A4007EC9BFCE99AF90FD8E0E402
:1007E300C9FAE4CCFB2275F010EF2FFFEE33FEEDD8
:1007F30033FDCC33CCC833C810D7079BEC9AE899A8
:10080300400AED9BFDEC9AFCE899F80FD5F0DAE489
:10081300CDFBE4CCFAE4C8F922C3E49FFFE49EFED7
:10082300E49DFDE49CFC22EB9FF5F0EA9E42F0E997
:100833009D42F0EC6480C864809845F022EB9FF5FC
:10084300F0EA9E42F0E99D42F0E89C45F022E86020
:100853000FECC313FCED13FDEE13FEEF13FFD8F102
:1008630022BB010789828A830209245005E9F80221
:100873000918BBFE05E9F802093089828A83020957
:100883003CECF0A3EDF0A3EEF0A3EFF022A88285F9
:1008930083F0D083D0821208A71208A71208A712E8
:1008A30008A7E473E493A3C583C5F0C583C8C582D1
:1008B300C8F0A3C583C5F0C583C8C582C822F5F0B7
:1008C300C582A4C582C5F0C583A42583F58322BB55
:1008D300010789828A830209555005E9F802094C08
:1008E300BBFE05E9F802095E89828A83020967D0A3
:1008F30083D082F8E4937012740193700DA3A393D1
:10090300F8740193F5828883E4737402936860EF4B
:10091300A3A3A380DFE6FC08E6FD08E6FE08E6FFE6
:1009230022E0FCA3E0FDA3E0FEA3E0FF22E2FC083B
:10093300E2FD08E2FE08E2FF22E493FC740193FD6A
:10094300740293FE740393FF22E6FB08E6FA08E6BB
:10095300F922E0FBA3E0FAA3E0F922E2FB08E2FAC2
:1009630008E2F922E493FB740193FA740293F922E7
:1009730043BA8078FBE6FBAF9FC3EF9BFFE4940091
:10098300FEE49400FDE49400FCE47BF07AD2F9F8F1
:100993001206FFE42FFFEE3436FEED346EFDEC3429
:1009A30001FC9001D01208849001D0E0FCA3E0FD8B
:1009B300A3E0FEA3E0FFC00790FE01E0FBE4FAF929
:1009C300F8D00712078A9001D01208847FC07EF600
:1009D3007D577C009001D0E0F8A3E0F9A3E0FAA3EF
:1009E300E0FBC312084050097F007E607D547C0009
:1009F300227FC07E267D827C009001D0E0F8A3E0B8
:100A0300F9A3E0FAA3E0FBC312084050097F807EFC
:100A13008D7D5B7C00227F807EED7DAF7C0090012D
:100A2300D0E0F8A3E0F9A3E0FAA3E0FBC312084087
:100A330050097F007EC07DA87C00227F807E2D7DB3
:100A4300E87C009001D0E0F8A3E0F9A3E0FAA3E08A
:100A5300FBC312084050097F007E1B7DB77C002238
:100A63007F807E367D257C019001D0E0F8A3E0F9FC
:100A7300A3E0FAA3E0FBC312084050097F007E40C5
:100A83007D197C01227F807E567D417C019001D0BF
:100A9300E0F8A3E0F9A3E0FAA3E0FBC31208405097
:100AA300097F007E2D7D317C01227F007EDB7D5F0F
:100AB3007C019001D0E0F8A3E0F9A3E0FAA3E0FB06
:100AC300C312084050097F007E807D517C01227F44
:100AD300607E197D857C019001D0E0F8A3E0F9A345
:100AE300E0FAA3E0FBC312084050097F007E367D85
:100AF3006E7C01227F207EE07DB27C019001D0E0FC
:100B0300F8A3E0F9A3E0FAA3E0FBC31208405009FD
:100B13007FC07EFC7D9B7C01227FE07EA67DE07C06
:100B2300019001D0E0F8A3E0F9A3E0FAA3E0FBC34E
:100B330012084050097F807EC37DC97C01227F60FB
:100B43007E2B7DFF7C019001D0E0F8A3E0F9A3E0C8
:100B5300FAA3E0FBC312084050097F007E407DFAF0
:100B63007C01227FC07E0E7D167C02229001D0EF95
:100B7300F0A3EDF0A3EBF0A3E0F8A3E0F9A3E0FA10
:100B8300A3E0FB900218E0FCA3E0FDA3E0FEA3E0DA
:100B9300FF12078AE47B04FAF9F812078AC3E49F79
:100BA300FFE49EAD07FC9001D0E0147003020C48F3
:100BB300147003020C8B147003020CE4240360030F
:100BC300020D419001D7E0FB7A0064017014439851
:100BD300508D8BECF58D438E40D28EE49001CAF09C
:100BE3008011EB64024A700B4398508DD7ECF5D615
:100BF300438E1553A23F9001D1E0F9FF7E007008A8
:100C0300A3E0640170028035EF64024E700D900121
:100C1300D2E06403700543A2408022E96404700DAE
:100C23009001D2E06405700543A2808010E9640658
:100C3300700B9001D2E06407700343A2C0E49001FB
:100C4300CAF0D2AC229001D7E06402700B439A1031
:100C53008DD7ECF5D6438E1453BAFE9001D1E0FF45
:100C63007E0064087008A3E0640970028011EF64D9
:100C73000A4E700B9001D2E0640B700343BA014338
:100C8300AF01E49001CBF0229001D7E0FB7A00643E
:100C930002700D439A108DD7ECF5D6438E14801154
:100CA300EB64034A700B43AC508DD5ECF5D443D1C0
:100CB3000A53BAFD9001D1E0FF7E00640C7008A3D3
:100CC300E0640D70028011EF640E4E700B9001D240
:100CD300E0640F700343BA0243AF08E49001CCF021
:100CE300229001D7E0FB7A006402700D4384108DDB
:100CF300D7ECF5D6438E148011EB64044A700B4392
:100D030084508DD3ECF5D243D1A053BAFB9001D1DB
:100D1300E0FF7E0064107008A3E064117002801687
:100D2300EF64124E70109001D2E064137008F5CA9C
:100D330075C90443BA0443AF10E49001CDF022D245
:100D4300A2D2A5C2A07F327E00120026D2A07FAE1F
:100D5300121158E4FF1211587F101211587F4012DC
:100D630011587F811211587F7F1211587FA11211E0
:100D7300587FC81211587FA61211587FA812115814
:100D83007F3F1211587FD3121158E4FF1211587F7D
:100D9300D51211587F801211587FD91211587FF143
:100DA3001211587FDA1211587F121211587FDB1279
:100DB30011587F401211587F201211587F021211CF
:100DC300587F8D1211587F141211587FA412115895
:100DD3007FA61211587FAF121158E4FF1210E7E4F7
:100DE300FDFF02127E9001D9EFF0A3EDF0A3EBF02B
:100DF300A3EAF0A3E9F0E4A3F0FCA3F09001DBE0A5
:100E0300FBA3E0FAA3E0F99001DFE0F5827583002C
:100E130012059D605F24E09001DEF09001D9E0D3DC
:100E2300947E748094804006E4F0A3E004F0900183
:100E3300D9E0FFA3E0FD12127EE4FCECC394067438
:100E430080948050209001DEE075F006A42482F5A2
:100E530082E5F03418F583E5822CF582E4358312BC
:100E6300117D0C80D69001D9E02406F09001DFE0DB
:100E730004F0808822787FE4F6D8FD758107020E9E
:100E8300BF02111EE493A3F8E493A34003F6800189
:100E9300F208DFF48029E493A3F85407240CC8C3B1
:100EA30033C4540F4420C8834004F456800146F6EB
:100EB300DFE4800B01020408102040809011D0E48D
:100EC3007E019360BCA3FF543F30E509541FFEE449
:100ED30093A360010ECF54C025E060A840B8E4930B
:100EE300A3FAE493A3F8E493A3C8C582C8CAC5834D
:100EF300CAF0A3C8C582C8CAC583CADFE9DEE780D2
:100F0300BE9001D9EEF0A3EFF0A3EBF0A3EAF0A3B8
:100F1300E9F09001DF7406F09001DBE0FBA3E0FA57
:100F2300A3E0F99001DFE0F582758300E4804E9041
:100F330001DFE0604D14F09001D9E0FAA3E0FB7CFF
:100F4300007D0AFFAE021206109001DEEDF07C0078
:100F53007D0AAF03AE021206109001D9EEF0A3EFA3
:100F6300F09001DEE02430FF9001DBE0FBA3E0FA28
:100F7300A3E0F99001DFE0F582758300EF1205DC51
:100F830080AD22C0E0C083C082C0D075D000C0064F
:100F9300C00730D822C2D89001E8E0FEA3E0F5EA0A
:100FA300EEF5FA9001E0E0FEA3E0FF9001E9E02F07
:100FB300F09001E8E03EF030D922C2D99001EAE096
:100FC300FEA3E0F5EBEEF5FB9001E2E0FEA3E0FF0C
:100FD3009001EBE02FF09001EAE03EF0D007D0065D
:100FE300D0D0D082D083D0E032120973900218128D
:100FF3000884E4F594F593F592F591F596F595F556
:10100300B2F5B1F5B4F5B3F5CAF5C9F5CCF5CBF541
:10101300E2F5E1F5D8F5D9F5DEF58EF598F59AF513
:10102300ACF584F5A2F5BAF5AFF589F5E9F5F94321
:10103300BA801211A79001D31208900001C2009048
:1010430001D77402F07B01E4FDFF020B6FC0E0C027
:1010530083C082C0D075D000C005C007309907C2D5
:10106300999001CAE4F030982AC298AF99EFFD64D1
:101073007F6005ED6480701690021FE0FF04F0D3DB
:10108300EF941474809480400A75C76080059002C1
:101093001FE4F0D007D005D0D0D082D083D0E03287
:1010A300C2D5E830E70FB2D5E4C39BFBE49AFAE478
:1010B30099F9E498F8EC30E717B2D51210D9120772
:1010C3008AE4C39BFBE49AFAE499F9E498F8800371
:1010D30012078A30D50DE4C39FFFE49EFEE49DFD15
:1010E300E49CFC22AC07E4FBEBC39408748094807B
:1010F3005028EB24B0FF1211587F011211587F10B2
:10110300121158E4FAEAC39480748094805008AFB3
:10111300041211820A80EE0B80CE229001CEE4F0FD
:10112300A374FFF0120006120FEC120D427BFF7A3C
:10113300007916E4FDFF120DE89001CEE0FAA3E07A
:10114300FB7D01E4FF1211F712000980FE54F0C485
:10115300540F4410FF7E08C2A2C2A1C2A5AD061E51
:10116300ED6014EF30E704D2A38002C2A3D2A5C27C
:10117300A5EF25E0FF80E6D2A222F583E493FF7E6C
:1011830008C2A2D2A1C2A5AD061EED6014EF30E7DE
:1011930004D2A38002C2A3D2A5C2A5EF25E0FF809B
:1011A300E6D2A222E47BE07A2EF9F8900218E0FC62
:1011B300A3E0FDA3E0FEA3E0FF12078A90021CEE6A
:1011C300F0A3EFF075DD48E4F5D9D2DE224402182E
:1011D300000000004801E800000000000000004893
:1011E30001E0000000000000000042021C0000417A
:1011F300021E00009001D0EFF0A3EDF0AE02AF03AA
:101203007B017A0179D2120F049001D0E0FFA3E0B1
:10121300FD7B017A0179D3020DE8C0E0C083C0826F
:10122300E5AC30E10853ACFD9001CCE4F0E5AC3023
:10123300E00353ACFED082D083D0E032C0E0C08361
:10124300C082E58430E1085384FD9001CDE4F0E5EC
:101253008430E0035384FED082D083D0E032AFF9F0
:10126300EFFEADE9EDFF90021DE02FFF90021CE0C1
:101273003E8FEDF5FD30DBFDC2DB22AC07ED24B084
:10128300FF121158EC121150EC540FFF02115800C9
:10129300000000000000000000000000000000004B
:1012A30000000808080808080800000808000000F3
:1012B3004824241200000000000000000000000089
:1012C30000004848487E2424247E2424240000006F
:1012D30000103C5252121C30505052523C1010001D
:1012E3000000222515150D2A5854545222000000DF
:1012F30000000C1212120A76252919916E000000C3
:1013030006040402000000000000000000000000CA
:10131300402010100808080808081010204000009A
:10132300020408081010101010100808040200002E
:1013330000000008086B1C1C6B080800000000007C
:1013430000000000101010FE10101000000000003C
:10135300000000000000000000000006040402007A
:10136300000000000000007E0000000000000000FC
:10137300000000000000000000000006060000005E
:101383000040202020101008080804040202000076
:101393000000182442424242424242241800000004
:1013A3000000101C10101010101010107C00000012
:1013B30000003C4242424020100804427E000000EC
:1013C30000003C4242402018204042423C000000C2
:1013D300000020303028242422FE2020F8000000C2
:1013E30000007E0202021E22404042221C00000036
:1013F3000000182402023A464242424438000000E8
:1014030000007E4220201010080808080800000091
:1014130000003C4242422418244242423C00000065
:1014230000001C22424242625C404024180000003B
:101433000000000000181800000000181800000049
:101443000000000000000800000000000808080079
:10145300000040201008040204081020400000008F
:1014630000000000007E00007E000000000000007D
:1014730000000204081020402010080402000000AD
:1014830000003C42424620101010001818000000D3
:1014930000001C225A55555555553A423C00000050
:1014A30000000808181414243C224242E7000000FC
:1014B30000001F2222221E22424242221F0000005D
:1014C30000007C4242010101010142221C00000094
:1014D30000001F2242424242424242221F000000B9
:1014E30000003F4212121E12120242423F0000004D
:1014F30000003F4212121E121202020207000000F5
:1015030000003C2222010101712122221C00000063
:101513000000E7424242427E42424242E70000006C
:1015230000003E0808080808080808083E000000F4
:1015330000007C10101010101010101010110F006C
:1015430000007722120A0E0A1212222277000000EC
:101553000000070202020202020202427F000000B0
:1015630000007736363636362A2A2A2A6B000000E0
:101573000000E346464A4A52525262624700000064
:1015830000001C2241414141414141221C00000015
:1015930000003F424242423E0202020207000000B4
:1015A30000001C224141414141414D321C60000079
:1015B30000003F4242423E1212222242C700000074
:1015C30000007C4242020418204042423E000000D8
:1015D30000007F4908080808080808081C000000E4
:1015E3000000E74242424242424242423C00000083
:1015F3000000E742422224241414180808000000C3
:1016030000006B2A2A2A2A2A361414141400000014
:101613000000E7422424181818242442E70000009D
:101623000000772222141408080808081C00000090
:1016330000007E2120101008040442423F000000F5
:101643007808080808080808080808080878000047
:101653000002040404080808101020202040400061
:101663001E1010101010101010101010101E00007B
:10167300182400000000000000000000000000002B
:10168300000000000000007E0000000000000000D9
:101693000608000000000000000000000000000039
:1016A3000000000000001C22302C22326C000000DD
:1016B3000000000302021A26424242261A000000DA
:1016C3000000000000003844020202443800000019
:1016D3000000006040407C4242424262DC00000065
:1016E3000000000000003C42427E02423C00000039
:1016F3000000003048083E08080808083E000000C3
:101703000000000000007C22221C023C42423C00FC
:101713000000000302023A4642424242E700000050
:1017230000000C0C00000E08080808083E0000002A
:1017330000003030000038202020202020221E000E
:1017430000000003020272120A0E12227700000048
:101753000000080E08080808080808083E000000F2
:101763000000000000007F9292929292B700000066
:101773000000000000003B4642424242E7000000F6
:101783000000000000003C42424242423C00000094
:101793000000000000001B26424242261A020700F6
:1017A3000000000000005864424242645840E000D8
:1017B300000000000000774C040404041F00000034
:1017C3000000000000007C42023C40423E0000005A
:1017D3000000000008083E08080808483000000020
:1017E300000000000000634242424262DC0000004D
:1017F30000000000000077222214140808000000F3
:10180300000000000000DB91525A2A24240000004B
:101813000000000000006E24181818247600000051
:10182300000000000000E7422424181808080600FE
:101833000000000000007E22100808447E00000023
:10184300C0202020202020102020202020C0001095
:101853001010101010101010101010101010100095
:101863000304040404040408040404040403000437
:101873005A200000000000000000000000000000EB
:1018830000000000000000002F0000000007000718
:101893000000147F147F1400242A7F2A120062643C
:1018A30008132300364955225000000503000000A9
:1018B300001C224100000041221C000014083E08C5
:1018C300140008083E0808000000A0600000080893
:1018D30008080800006060000000201008040200EF
:1018E3003E5149453E0000427F400000426151495C
:1018F30046002141454B31001814127F1000274543
:10190300454539003C4A4949300001710905030046
:10191300364949493600064949291E000036360032
:101923000000005636000000081422410000141481
:101933001414140000412214080002015109060086
:10194300324959513E007C1211127C007F494949AA
:1019530036003E41414122007F4141221C007F4924
:10196300494941007F09090901003E4149497A007B
:101973007F0808087F0000417F4100002040413F6D
:1019830001007F08142241007F40404040007F0255
:101993000C027F007F0408107F003E4141413E005E
:1019A3007F09090906003E4151215E007F0919297B
:1019B300460046494949310001017F0101003F408A
:1019C30040403F001F2040201F003F4038403F0061
:1019D3006314081463000708700807006151494540
:1019E3004300007F41410000552A552A550000411C
:1019F300417F0000040201020400404040404000D7
:101A03000001020400002054545478007F484444E9
:101A13003800384444442000384444487F00385454
:101A230054541800087E0901020018A4A4A47C00E1
:101A33007F080404780000447D4000004080847DDA
:101A430000007F102844000000417F4000007C0418
:101A5300180478007C0804047800384444443800AF
:101A6300FC242424180018242418FC007C080404F3
:101A73000800485454542000043F444020003C4094
:101A830040207C001C2040201C003C4030403C0097
:101A93004428102844001CA0A0A07C004464544C9B
:101AA3004414141414141400000000000000000077
:101AB30000000000000000000000F800000000002B
:101AC3000000333000000000100C06100C0600006C
:101AD3000000000000000040C07840C078400004CF
:101AE3003F04043F040400007088FC083000000039
:101AF3001820FF211E0000F008F000E0180000008D
:101B0300211C031E211E0000F00888700000001E27
:101B13002123241927211010160E000000000000B5
:101B230000000000000000000000E01804020000B4
:101B33000000071820400000020418E00000000025
:101B430040201807000000404080F0804040000221
:101B530002010F01020200000000F000000000017A
:101B630001011F01010100000000000000000080CE
:101B7300B070000000000000000000000000000042
:101B8300010101010101010000000000000000004B
:101B930030300000000000000000008060180400E6
:101BA3006018060100000000E010080810E00000C3
:101BB3000F102020100F00001010F800000000008C
:101BC30020203F20200000007008080888700000D3
:101BD3003028242221300000300888884830000053
:101BE30018202020110E000000C02010F800000073
:101BF300070424243F240000F8088888080800000C
:101C030019212020110E0000E01088881800000020
:101C13000F112020110E0000380808C838080000F2
:101C230000003F0000000000708808088870000072
:101C33001C222121221C0000E010080810E00000F3
:101C430000312222110F00000000C0C0000000007C
:101C530000003030000000000000800000000000A1
:101C63000080600000000000008040201008000099
:101C7300010204081020004040404040404000045E
:101C83000404040404040000081020408000000041
:101C930020100804020100007048080808F0000042
:101CA30000003036010000C030C828E810E000070B
:101CB30018272423140B000000C038E00000002084
:101CC3003C23020227382008F88888887000002007
:101CD3003F202020110E00C03008080808380007F4
:101CE3001820202010080008F808080810E0002039
:101CF3003F202020100F0008F88888E808100020F3
:101D03003F20202320180008F88888E808100020C6
:101D13003F200003000000C0300808083800000717
:101D2300182020221E020008F808000008F80820E6
:101D33003F210101213F20000808F80808000000A6
:101D430020203F2020000000000808F8080800C0F9
:101D53008080807F00000008F888C02818080020D1
:101D63003F20012638200008F8080000000000206A
:101D73003F20202020300008F8F800F8F808002061
:101D83003F003F003F200008F830C00008F808205B
:101D93003F200007183F00E01008080810E0000F7C
:101DA30010202020100F0008F808080808F0002071
:101DB3003F210101010000E01008080810E0000FB6
:101DC30018242438504F0008F88888888870002029
:101DD3003F2000030C3020007088080808380000FA
:101DE30038202121221C00180808F80808180000D0
:101DF30000203F2000000008F808000008F8080051
:101E03001F202020201F000878880000C838080001
:101E13000007380E010000F80800F80008F8000376
:101E23003C0700073C0300081868808068180820F6
:101E3300302C03032C30200838C800C838080000B1
:101E430000203F2000000010080808C838080020C0
:101E530038262120201800000000FE0202020000A4
:101E630000007F40404000000C30C0000000000034
:101E73000000010638C00000020202FE000000005C
:101E83004040407F00000000000402020204000002
:101E930000000000000000000000000000000080BF
:101EA30080808080808080000202040000000000A7
:101EB300000000000000000000808080800000001F
:101EC30019242222223F2008F8008080000000000D
:101ED3003F112020110E00000000808080000000D0
:101EE3000E112020201100000000808088F80000DF
:101EF3000E112020103F2000008080808000000011
:101F03001F222222221300008080F0888888180074
:101F130020203F202000000000808080808000007F
:101F23006B94949493600008F800808080000020F4
:101F33003F210000203F200080989800000000000F
:101F430020203F202000000000008098980000001F
:101F5300C08080807F000008F8000080808000201F
:101F63003F24022D302000000808F8000000000084
:101F730020203F20200000808080808080800020FF
:101F83003F20003F20003F808000808080000020B1
:101F93003F210000203F200000808080800000005F
:101FA3001F202020201F00808000808000000080F0
:101FB300FFA12020110E000000008080808000001F
:101FC3000E112020A0FF8080808000808080002070
:101FD300203F2120000100000080808080800000DD
:101FE30033242424241900008080E0808000000032
:101FF30000001F202000008080000000808000007F
:102003001F202020103F20808080000080808000DF
:10201300010E300806010080800080008080800F60
:10202300300C030C300F00008080008080800000A3
:1020330020312E0E3120008080800000808080803F
:10204300818E7018060100008080808080800000EF
:1020530021302C2221300000000000807C0202008D
:10206300000000003F404000000000FF00000000AF
:10207300000000FF0000000002027C80000000005E
:1020830040403F000000000006010102020404007A
:072093000000000000000046
:00000001FF
