:1000000002139702000CC2AF22D2AF223232323238
:0100100032BD
:0300130002000DDB
:100023000214ED9001FEEFF0FDE4FF121553900171
:04003300FEE0FF22CA
:03003B0002142389
:0300430002005E5A
:0300530002000E9A
:10005B0002000FC0E0C083C082E59A30E108539ADA
:10006B00FD9001CBE4F0E59A30E003539AFED08289
:05007B00D083D0E0324B
:0300830002001068
:03008B0002162832
:1000930002164A020457E86480F8E933E833601132
:1000A3000460F0ED33EC337009E8FCE9FDEAFEEBA4
:1000B300FF220460DED3EB9FEA9EE99DE8C2E78C52
:1000C300F0C2F795F0400CE8CCF8E9CDF9EACEFAA6
:1000D300EBCFFB12042285D0F05804700320D5B374
:1000E300E80470075002B2D502046192D5EC0460B3
:1000F300F7E4CCC0E0C398F8603B94186008400D67
:10010300D0E0FB020439E4FBFAC9FC8028E830E4C0
:1001130006E4C9FBE4CAFCE830E305E4C9CACBFC46
:10012300E854076010F8C3E913F9EA13FAEB13FB79
:10013300EC13FCD8F130F52FC3E49CFCEF9BFFEEEE
:100143009AFEED99FDD0E0FBEF4E4D4C701222DB91
:100153000302045EEC2CFCEF33FFEE33FEED33FDC4
:10016300ED30E7EB020439EF2BFFEE3AFEED39FDFC
:10017300D0E0FB50130BBB0003020461ED13FDEE53
:1001830013FEEF13FFEC13FC020439EC4D6011E88E
:10019300497017ED33EC3304600DE4FCFFFEFD22E0
:1001A300E933E8330470F802045712042258046058
:1001B30009E4CC2481500628500902046128400335
:1001C30002045EC0E0EB4A7044B98006D0E0FB0253
:1001D300044DEF4E701CBD8008EBFFEAFEE9FD8085
:1001E300EBE98DF0A4FEE5F0020277E9CDF9EAFE32
:1001F300EBFFEF89F0A4FCE5F0CE89F0A42EFFE439
:1002030035F0CD89F0A42DFEE435F08067EF4E7014
:1002130005BD80D780C3EF8BF0A4ACF0EE8BF0A4C8
:100223002CFCE435F0F8EF8AF0A42CE5F038FCE47C
:1002330033CB8DF0A42CFCE5F03BF8EE8AF0A42C34
:10024300FCE5F038F8E433CF89F0A42CFCE5F03872
:10025300CF3400CE89F0A42FFFE5F03EFEE433C98E
:100263008DF0A42EFEE5F039CD8AF0A42FFFE5F042
:100273003EFEE43DFD33D0E0FB50070BBB000F0215
:100283000461EC2CFCEF33FFEE33FEED33FD02048F
:1002930039020461EC5D046005E85904700302044B
:1002A30057120422580460F6EC4860F2EC7004FD27
:1002B300FEFF22C860DB2481C85009C39860025046
:1002C3000602045E9850CAF582E9294B4A7005ABD1
:1002D3008202044D75F0007C1A7880C3EF9BEE9A7E
:1002E300ED99400DC3EF9BFFEE9AFEED99FDE842B9
:1002F300F0DC23ACF0D0E0FFD0E0FED0E0FDAB8239
:1003030020E7101BEB60BAEC2CFCEF33FFEE33FE5F
:10031300ED33FD020439E803F830E705C0F075F06A
:1003230000EF2FFFEE33FEED33FD40B830E7C28020
:10033300AA74F8CC6480CCC86480C8F58204604F8A
:10034300C3EB9FF5F0EA9E42F0E99D42F0E89C453D
:10035300F0603C501DE5825FFFE582D313CB5BCB9E
:10036300F42B5582FB50280ABA002409B90020084F
:10037300801DE5825BFBE582D313CF5FCFF4C3130C
:100383002F5582FF50090EBE00050DBD00010CC3A1
:10039300EB9FF5F0EA9E42F0E99D42F0E89C45F0C0
:1003A3006007CC4820E701B3EC2275F020800E757E
:1003B300F010800575F0087D007E007F003392D534
:1003C30030D5031209CEEC334010EF33FFEE33FE8A
:1003D300ED33FDEC33FCD5F0ED22E5F0247EA2D520
:1003E30013CC92E7CDCEFF22EDD2E7CD33EC33929F
:1003F300D524814006E4FFFEFDFC22FCE4CFCECDF4
:10040300CC24E0501174FF80EDC3CC13CCCD13CDBD
:10041300CE13CECF13CF0470F030D5DE0209CEE970
:10042300D2E7C933E833F892D5EDD2E7CD33EC33D5
:10043300FC5002B2D522EC30E7100FBF000C0EBE09
:1004430000080DBD00040BEB6014A2D5EB13FCED0B
:1004530092E7FD2274FFFCFDFEFF22E480F8A2D5A3
:1004630074FF13FC7D80E480EFF920E73624F95014
:10047300037907E4F42402FBE582158270021583F5
:10048300DBF6E024FB501BE96014E4F0E5821582FF
:1004930070021583E004F0B40A08E4F0D9EE7401A5
:1004A300F00A22C2D522ED33EC3392D5FA602AB496
:1004B300FF33EDC2E77BFF60067A0479CEE4227A4C
:1004C3000479D720D5047A0479D2224E614E002BC9
:1004D300494E46002D494E4600E47A08F0A3DAFC63
:1004E3007B00740722C083C082ECC0E0EDC0E0EE65
:1004F300C0E0EFC0E0EA75F010A4CAABF075F04DB0
:10050300A42BFBE435F0FCEA2410FAEB34C5FBEC36
:1005130034D9FCEDC2E7FF75F056A4F42411C5F0FD
:10052300F434C58FF0A42AE5F03BE43CF020E71453
:100533001205DED0E0FFD0E0FED0E0FDD0E0FC12FB
:1005430002978014F4041205DED0E0FFD0E0FED061
:10055300E0FDD0E0FC12018ED082D083E0FAEDD230
:10056300E7CD33EC332482FBE4C3CF33CFCE33CE9A
:10057300CD33CD33DBF37B0775F00A846004F0A33E
:100583001B0AE5F0F0A38FF0740AA4FFACF08EF021
:10059300740AA42CFEACF050010C8DF0740AA42C48
:1005A300FDE435F0F0A3DBDE7407223F8000004159
:1005B30020000042C80000447A0000461C40004767
:1005C300C35000497424004B1896804CBEBC205A7B
:1005D3000E1BCA6753C21C749DC5AEFB600654074D
:1005E300601C232312060CEB543860091205F81221
:1005F300060712018EECF8EDF9EEFAEFCB22EB12BF
:10060300060780F1543803241C9005AEFE93FC0EBC
:10061300EE93FD0EEE930ECE93FF22E709F608DF6D
:10062300FA8046E709F208DFFA803E88828C83E786
:1006330009F0A3DFFA8032E309F608DFFA8078E3F2
:1006430009F208DFFA807088828C83E309F0A3DF64
:10065300FA806489828A83E0A3F608DFFA805889E6
:10066300828A83E0A3F208DFFA804C80D280FA808A
:10067300C680D4806980F28033801080A680EA80AF
:100683009A80A880DA80E280CA803389828A83ECE8
:10069300FAE493A3C8C582C8CCC583CCF0A3C8C56C
:1006A30082C8CCC583CCDFE9DEE7800D89828A83EB
:1006B300E493A3F608DFF9ECFAA9F0EDFB228982B3
:1006C3008A83ECFAE0A3C8C582C8CCC583CCF0A367
:1006D300C8C582C8CCC583CCDFEADEE880DB89826B
:1006E3008A83E493A3F208DFF980CC88F0EF6001FA
:1006F3000E4E60C388F0ED2402B4040050B9F582B5
:10070300EB2402B4040050AF232345822390066EEA
:1007130073C2D530F707B2D563F0FF05F030E70CAD
:10072300B2D5F4048463F0FF05F080018430D50270
:10073300F40422BB010689828A83E0225002E72265
:10074300BBFE02E32289828A83E49322BB010CE588
:100753008229F582E5833AF583E0225006E9258272
:10076300F8E622BBFE06E92582F8E222E58229F5B6
:1007730082E5833AF583E49322BB010689828A8367
:10078300F0225002F722BBFE01F322F8BB010DE574
:100793008229F582E5833AF583E8F0225006E925BC
:1007A30082C8F622BBFE05E92582C8F222EF8DF04E
:1007B300A4A8F0CF8CF0A428CE8DF0A42EFE22BCEA
:1007C300000BBE0029EF8DF084FFADF022E4CCF8DE
:1007D30075F008EF2FFFEE33FEEC33FCEE9DEC9843
:1007E3004005FCEE9DFE0FD5F0E9E4CEFD22EDF8C9
:1007F300F5F0EE8420D21CFEADF075F008EF2FFF6C
:10080300ED33FD4007985006D5F0F222C398FD0F53
:10081300D5F0EA22C2D5EC30E709B2D5E4C39DFD99
:10082300E49CFCEE30E715B2D5E4C39FFFE49EFEE3
:100833001207C2C3E49DFDE49CFC80031207C2308F
:10084300D507C3E49FFFE49EFE22C5F0F8A3E0288A
:10085300F0C5F0F8E582158270021583E038F022C6
:10086300A3F8E0C5F025F0F0E58215827002158348
:10087300E0C838F0E822BB0110E58229F582E58360
:100883003AF583E0F5F0A3E0225009E92582F886E2
:10089300F008E622BBFE0AE92582F8E2F5F008E259
:1008A30022E5832AF583E993F5F0A3E99322E88F00
:1008B300F0A4CC8BF0A42CFCE98EF0A42CFC8AF0E1
:1008C300EDA42CFCEA8EF0A4CDA8F08BF0A42DCCE3
:1008D3003825F0FDE98FF0A42CCD35F0FCEB8EF03C
:1008E300A4FEA9F0EB8FF0A4CFC5F02ECD39FEE422
:1008F3003CFCEAA42DCE35F0FDE43CFC2275F00867
:10090300758200EF2FFFEE33FECD33CDCC33CCC554
:100913008233C5829BED9AEC99E58298400CF5826F
:10092300EE9BFEED9AFDEC99FC0FD5F0D6E4CEFBE1
:10093300E4CDFAE4CCF9A88222B800C1B90059BACF
:10094300002DEC8BF084CFCECDFCE5F0CBF97818FD
:10095300EF2FFFEE33FEED33FDEC33FCEB33FB10F7
:10096300D703994004EB99FB0FD8E5E4F9FA227811
:1009730018EF2FFFEE33FEED33FDEC33FCC933C923
:1009830010D7059BE99A4007EC9BFCE99AF90FD82D
:10099300E0E4C9FAE4CCFB2275F010EF2FFFEE334D
:1009A300FEED33FDCC33CCC833C810D7079BEC9A8C
:1009B300E899400AED9BFDEC9AFCE899F80FD5F015
:1009C300DAE4CDFBE4CCFAE4C8F922C3E49FFFE404
:1009D3009EFEE49DFDE49CFC22EB9FF5F0EA9E4223
:1009E300F0E99D42F0EC6480C864809845F022EB06
:1009F3009FF5F0EA9E42F0E99D42F0E89C45F02223
:100A0300E8600FECC313FCED13FDEE13FEEF13FFD1
:100A1300D8F122BB010789828A83020AF65005E9CD
:100A2300F8020AEABBFE05E9F8020B0289828A830F
:100A3300020B0EECF0A3EDF0A3EEF0A3EFF022A86F
:100A4300828583F0D083D082120A59120A59120A7E
:100A530059120A59E473E493A3C583C5F0C583C847
:100A6300C582C8F0A3C583C5F0C583C8C582C822A3
:100A7300F5F0C582A4C582C5F0C583A42583F5839B
:100A830022F8E0FBA3A3E0F925F0F0E582158270DC
:100A9300021583E0FA38F022EBF0A3EAF0A3E9F0C1
:100AA30022BB010789828A83020B275005E9F802DA
:100AB3000B1EBBFE05E9F8020B3089828A83020B09
:100AC30039D083D082F8E4937012740193700DA32C
:100AD300A393F8740193F5828883E4737402936893
:100AE30060EFA3A3A380DFE6FC08E6FD08E6FE08AB
:100AF300E6FF22E0FCA3E0FDA3E0FEA3E0FF22E289
:100B0300FC08E2FD08E2FE08E2FF22E493FC740124
:100B130093FD740293FE740393FF22E6FB08E6FA47
:100B230008E6F922E0FBA3E0FAA3E0F922E2FB08DE
:100B3300E2FA08E2F922E493FB740193FA74029354
:100B4300F922E50824D1F582E43401F583E00508B0
:100B5300229001CE3007039001D1E475F001120A0F
:100B6300840207362000E97F2ED2008018EF540F4D
:100B73002490D43440D4FF30040BEF24BFB41A00C4
:100B830050032461FFE50960021509050CE50C70AB
:100B930002050B30070E9001CEE475F001120A84B2
:100BA300EF02077C0200267403D2078003E4C20726
:100BB300F5089001CE120A9BE4F509F50BF50CE557
:100BC3000960077F20120B8880F5750AFFC201C2F6
:100BD30000C202C203C205C206C208120B54FF7050
:100BE3000D3007057F00120B99AF0CAE0B22B42515
:100BF3005FC2D5C204120B54FF24D0B40A00501AAA
:100C030075F00A780930D50508B6FF0106C6A42693
:100C1300F620D5047002D20380D924CFB41A00EF92
:100C23005004C2E5D204020E8BD20180C6D20080EA
:100C3300C0D20280BCD2D580BAD20580B47F201244
:100C43000B882002077401B5090040F1120B45FF20
:100C5300120B88020BC2D208D2068095120B45FBF9
:100C6300120B45FA120B45F94A4B700679897A0F34
:100C73007BFF20022EE509602A7E008E82758300A9
:100C830012074F60060EEE650A70F0C2D5EBC0E0A6
:100C9300EAC0E0E9C0E0EE120EECD0E0F9D0E0FAF1
:100CA300D0E0FB120736FF60AAEBC0E0EAC0E0E940
:100CB300C0E0120B88D0E02401F9D0E03400FAD070
:100CC300E0FBE50A0460DCD50AD98087D20280A262
:100CD300120ECE60F7E50A70010412046CA90A60D3
:100CE3000DE50A600914F50A120F76EF60F3EA3096
:100CF300E702F404C3995079EAF4250A0430E701C2
:100D0300E404F50A800D120ECE60C1EA050A250A35
:100D130012046CEA9001FDF030E701E4250A04D5E2
:100D23000A0420050114120EECE4C0E0120F7690C1
:100D330001FDE0601320E70714F0120B708022041A
:100D4300F0D0E014C0E07F00120B70E50A600712D8
:100D53000B67150A800B300503120B67D0E0020BFB
:100D6300C2D0E00480C4120ECE609EE50A041204D1
:100D73006C9001FDEAF0E50A2005026001042404F9
:100D8300120EEC74FF04C0E0120F76120B70E50A2A
:100D93002005026003120B67D0E0B50AE87F451215
:100DA3000B7A9001FDE07F2B30E7047F2DF404C024
:100DB300E0120B88D0E075F00A84C0F0120B71D0FA
:100DC300E0120B71020BC2791080027908C206C2CD
:100DD300088008D2D5790A8004790AC2D5E50A04C5
:100DE3007002F50AE4FAFDFEFF120B45FC7B0820B6
:100DF3000113120B45FD7B1030000A120B45FE1246
:100E03000B45FF7B20EC3382D592D55013C3E430DE
:100E130000069FFFE49EFEE42001039DFDE49CFC8D
:100E2300E4CBF8C201EC700CCFCECDCCE824F8F8BB
:100E330070F38017C3EF33FFEE33FEED33FDEC3376
:100E4300FCEB33FB994002FB0FD8E9EB300105F8CB
:100E5300D0E0C448B201C0E00AEC4D4E4F78207B8D
:100E63000070C2EAB50A0040BCC0E0120EEED0F03A
:100E7300D0E0200104C4C0E0C4B201C0F0120B7181
:100E8300D0F0D5F0EB020BC2120AC40C5F530DCAAB
:100E9300580C304C0C2C420DCE4F0DD6440DD64978
:100EA3000C45430DDC550D09460D69450CD3470F21
:100EB300A9500C342D0C382E0C5B2B0C3C230C59F5
:100EC300200F922A0BF44800000C53E50AB4FF03E9
:100ED300750A06120B45FC120B45FD120B45FE125B
:100EE3000B45FF9001F60204A9790AA2D520031449
:100EF300300509B910020404B9080104A2D520067B
:100F0300025001042002689202B509005034C0E087
:100F13007F203003197F30A20272067205500F1230
:100F23000F45C202C206C205C2087F30800F3005DA
:100F330003E9C0E0120B88300503D0E0F9D0E0B537
:100F430009CC3005177F30B9100C120B887F58304D
:100F530004077F788003B90803120B883002057FEA
:100F63002D020B887F202008F87F2B2006F3229286
:100F73000280CF7F00B40700500B24F6F582E434DF
:100F830001F583E0FF22286E756C6C2900D20112F3
:100F93000B453001F8C201780930D50108F6020B80
:100FA300F42D50434958120B452403B40500400166
:100FB300E4900FA493120B79743A120B79D2037550
:100FC3000904020DCA43BA8078FBE6FBAF9FC3EF67
:100FD3009BFFE49400FEE49400FDE49400FCE47BB6
:100FE300F07AD2F9F81208B1E42FFFEE3436FEEDB1
:100FF300346EFDEC3401FC9001CE120A369001CE22
:10100300E0FCA3E0FDA3E0FEA3E0FFC00790FE0128
:10101300E0FBE4FAF9F8D00712093C9001CE120A7A
:10102300367FC07EF67D577C009001CEE0F8A3E0CA
:10103300F9A3E0FAA3E0FBC31209F250097F007E93
:10104300607D547C00227FC07E267D827C009001DF
:10105300CEE0F8A3E0F9A3E0FAA3E0FBC31209F2A0
:1010630050097F807E8D7D5B7C00227F807EED7DBD
:10107300AF7C009001CEE0F8A3E0F9A3E0FAA3E08F
:10108300FBC31209F250097F007EC07DA87C0022B9
:101093007F807E2D7DE87C009001CEE0F8A3E0F90F
:1010A300A3E0FAA3E0FBC31209F250097F007E1B01
:1010B3007DB77C00227F807E367D257C019001CE2A
:1010C300E0F8A3E0F9A3E0FAA3E0FBC31209F250AE
:1010D300097F007E407D197C01227F807E567D4101
:1010E3007C019001CEE0F8A3E0F9A3E0FAA3E0FBD2
:1010F300C31209F250097F007E2D7D317C01227FCE
:10110300007EDB7D5F7C019001CEE0F8A3E0F9A3D4
:10111300E0FAA3E0FBC31209F250097F007E807D51
:10112300517C01227F607E197D857C019001CEE098
:10113300F8A3E0F9A3E0FAA3E0FBC31209F2500914
:101143007F007E367D6E7C01227F207EE07DB27C37
:10115300019001CEE0F8A3E0F9A3E0FAA3E0FBC31A
:101163001209F250097FC07EFC7D9B7C01227FE047
:101173007EA67DE07C019001CEE0F8A3E0F9A3E038
:10118300FAA3E0FBC31209F250097F807EC37DC935
:101193007C01227F607E2B7DFF7C019001CEE0F8F5
:1011A300A3E0F9A3E0FAA3E0FBC31209F250097F1D
:1011B300007E407DFA7C01227FC07E0E7D167C027C
:1011C300229001CEEFF0A3EDF0A3EBF0A3E0F8A3A0
:1011D300E0F9A3E0FAA3E0FB900237E0FCA3E0FD13
:1011E300A3E0FEA3E0FF12093CE47B04FAF9F81242
:1011F300093CC3E49FFFE49EAD07FC9001CEE014DD
:10120300700302129D1470030212E01470030213A0
:1012130039240360030213969001D5E0FB7A00643E
:101223000170144398508D8BECF58D438E40D28E14
:10123300E49001CAF08011EB64024A700B439850AA
:101243008DD7ECF5D6438E1553A23F9001CFE0F92D
:10125300FF7E007008A3E0640170028035EF640232
:101263004E700D9001D0E06403700543A2408022CC
:10127300E96404700D9001D0E06405700543A28019
:101283008010E96406700B9001D0E064077003439B
:10129300A2C0E49001CAF0D2AC229001D5E064026E
:1012A300700B439A108DD7ECF5D6438E1453BAFEC8
:1012B3009001CFE0FF7E0064087008A3E06409702A
:1012C300028011EF640A4E700B9001D0E0640B7042
:1012D3000343BA0143AF01E49001CBF0229001D55F
:1012E300E0FB7A006402700D439A108DD7ECF5D6BB
:1012F300438E148011EB64034A700B43AC508DD5BD
:10130300ECF5D443D10A53BAFD9001CFE0FF7E0040
:10131300640C7008A3E0640D70028011EF640E4E3C
:10132300700B9001D0E0640F700343BA0243AF081F
:10133300E49001CCF0229001D5E0FB7A00640270C6
:101343000D4384108DD7ECF5D6438E148011EB64D6
:10135300044A700B4384508DD3ECF5D243D1A05390
:10136300BAFB9001CFE0FF7E0064107008A3E06435
:101373001170028016EF64124E70109001D0E06479
:10138300137008F5CA75C90443BA0443AF10E49057
:1013930001CDF022787FE4F6D8FD7581210213DEBA
:1013A30002166CE493A3F8E493A34003F68001F2DE
:1013B30008DFF48029E493A3F85407240CC8C3334B
:1013C300C4540F4420C8834004F456800146F6DF1A
:1013D300E4800B01020408102040809015D3E47EC2
:1013E300019360BCA3FF543F30E509541FFEE4930F
:1013F300A360010ECF54C025E060A840B8E493A3D6
:10140300FAE493A3F8E493A3C8C582C8CAC583CA00
:10141300F0A3C8C582C8CAC583CADFE9DEE780BEB8
:10142300C0E0C083C082C0D075D000C006C0073002
:10143300D822C2D8900207E0FEA3E0F5EAEEF5FA5F
:101443009001FFE0FEA3E0FF900208E02FF090027E
:1014530007E03EF030D922C2D9900209E0FEA3E0B2
:10146300F5EBEEF5FB900201E0FEA3E0FF90020A2C
:10147300E02FF0900209E03EF0D007D006D0D0D0A4
:1014830082D083D0E032120FC8900237120A36E4BA
:10149300F594F593F592F591F596F595F5B2F5B1C9
:1014A300F5B4F5B3F5CAF5C9F5CCF5CBF5E2F5E13D
:1014B300F5D8F5D9F5DEF58EF598F59AF5ACF58402
:1014C300F5A2F5BAF5AFF589F5E9F5F943BA801256
:1014D30015FF9001D1120A420001C2009001D57498
:1014E30002F07B01E4FDFF0211C4C0E0C083C082AF
:1014F300C0D075D000C005C007309907C2999001CC
:10150300CAE4F030982AC298AF99EFFD647F600572
:10151300ED64807016900240E0FF04F0D3EF941462
:1015230074809480400A75C7608005900240E4F09F
:10153300D007D005D0D0D082D083D0E032AF06E040
:10154300FBA3E475F001120863A9F0FA120736FD54
:10155300EF14601514601D1460252403702D900191
:10156300CAE070FA04F08D99229001CBE070FA047E
:10157300F08D9B229001CCE070FA04F08DAD2290A7
:1015830001CDE070FA04F0AF058F8522C2D5E830B3
:10159300E70FB2D5E4C39BFBE49AFAE499F9E49824
:1015A300F8EC30E717B2D51215C512093CE4C39B1A
:1015B300FBE49AFAE499F9E498F8800312093C30C1
:1015C300D50DE4C39FFFE49EFEE49DFDE49CFC2255
:1015D300440237000000004802070000000000003A
:1015E30000004801FF000000000000000042023B31
:1015F300000041023F0042023D000000E47BE07A2C
:101603002EF9F8900237E0FCA3E0FDA3E0FEA3E08F
:10161300FF12093C90023BEEF0A3EFF075DD48E4C6
:10162300F5D9D2DE22C0E0C083C082E5AC30E10848
:1016330053ACFD9001CCE4F0E5AC30E00353ACFED9
:10164300D082D083D0E032C0E0C083C082E5843052
:10165300E1085384FD9001CDE4F0E58430E00353C9
:1016630084FED082D083D0E0321200061214891295
:1016730000097BFF7A167989120BB07BFF7A167902
:1016830094120BB080ECCCCEB8E7CEDEB5D00D0A09
:101693000042415544203D20313135323030200D58
:0216A3000A003B
:00000001FF
